:1000000086EF0AF068961200046ED8CF05F0E0CFB4
:1000100006F00001E9CF0CF0EACF07F0E1CF08F0DD
:10002000E2CF09F0D9CF0AF0DACF0BF0F3CF12F01C
:10003000F4CF13F0FACF14F000C00EF001C00FF0AF
:1000400002C010F003C011F0A0AA2AEF00F0A1BA7C
:100050000DEF07F00EC000F00FC001F010C002F06D
:1000600011C003F00CC0E9FF07C0EAFF078E08C00B
:10007000E1FF09C0E2FF0AC0D9FF0BC0DAFF12C0DE
:10008000F3FF13C0F4FF14C0FAFF045006C0E0FFF2
:1000900005C0D8FF1000F2CF0DF0F29EF76AB00F46
:1000A000F66E000EF7220900F5500DBEF28E12001A
:1000B000280C0106F76AC40FF66E000EF72209003D
:1000C000F55012000003FFFFFFFFFFFFFFFFFFFFE0
:1000D000FFFFFFFF07AE03D0F2CF0DF0F29EF76AED
:1000E000F60FF66E000EF7220900F55007AE02D0AB
:1000F0000DBEF28E12004000400000000000000023
:1001000000000000000000000000000000000000EF
:10011000000000000000F76A260FF66E010EF722BD
:100120000900F55012000600FF0901A1011900297C
:1001300020150025FF7508954081021900292075BA
:100140000895409102C0F76A560FF66E010EF7222D
:100150000900F55012000000F76A680FF66E010EF4
:10016000F7220900F55012002000F76A7A0FF66EA8
:10017000010EF7220900F5501200090229000101C1
:10018000008032090400000203000000092111016F
:1001900000012220000705810340000A0705010332
:1001A00040000A00F76AB40FF66E010EF72209004C
:1001B000F55012000100F76AC60FF66E010EF72225
:1001C0000900F55012001200F76AD80FF66E010E02
:1001D000F7220900F5501200120100020000004051
:1001E00011111111000101020001F76AFA0FF66EF8
:1001F000010EF7220900F550120004030904080358
:1002000074006D0063003A035500670075007200CA
:100210002000590061006C00630069006E0020003E
:100220007700770077002E00750067007500720078
:10023000790061006C00630069006E002E006400AC
:10024000650020006D92699468A402D06894FCD780
:1002500019EF07F0400E0401016F040E036F100E3A
:10026000026F880E006F046B040E076F500E066F4E
:100270000001120070A002D0EDDF7090689A20EFAC
:1002800007F06A6A689225EF07F0B491B3BFB481B2
:10029000B39FB351100803E2000E016E20D0B4A149
:1002A00010D0036AB351F2CFB5F0F29E03DFB5BFB1
:1002B000F28EFF0802E1000E01D0010E016E0FD098
:1002C0000ED0036AB351F2CFB5F0F29EF3DEB5BFA4
:1002D000F28EFF0802E1000E01D0010E016E120045
:1002E000B351B503F3CF01F0F4CF00F0B603F350F0
:1002F0000026B451B503F3500020026E1200036AC9
:10030000B251700FE96E0F0E0320EA6EEF6AB2C0B1
:10031000B3F0BBDF015222E0B46BB2C0B3F0B66BF6
:10032000080EB56FDDDF01C0E9FF040E0224EA6E9E
:10033000EF6AB46BB2C0B3F0B66B080EB56FD0DF26
:1003400002C0B4F001C0B3F0040EB327000EB42312
:10035000B3C0E9FF040EB425EA6EEF6A1200010E85
:10036000B16FB1510F0805E3B1C0B2F0C8DFB12BD6
:10037000F8D71200256A246AA76BA7530AE1036A1B
:10038000A751260FE96E000E0320EA6EEF6AA72B35
:10039000F4D7186A010E196E176A12006A6A686A41
:1003A0009F0E6B6E3D0E696E6E6AD9DFE3DF160E2F
:1003B000706E68A602D026DEFCD76D984BDF030E68
:1003C0001F6E2AEF07F0698468986D822FEF07F09F
:1003D000689C34EF07F0ACC020F0120020681200D7
:1003E000AA6B2450251046E0AA513F0843E31A5057
:1003F000FC0F2EE2040F45EF02F023C003F0225061
:10040000F2CFACF0F29EB1DEACBFF28EAB6F20D07B
:1004100023C003F02250F2CFACF0F29E7CDEACBFE2
:10042000F28EAB6F15D023C003F02250F2CFACF0A8
:10043000F29EDBDEACBFF28EAB6F0AD023C003F0BE
:100440002250F2CFACF0F29EBFDEACBFF28EAB6FAB
:10045000222AD8B4232A2450D8B425062406AA5127
:10046000AA2B500FE96E040EEA6ED8B0EA2AABC090
:10047000EFFFB7D72450251004E1AA51400801E04E
:10048000176AAAC0ACF0A7DF1200E824F76AF736B3
:10049000A50FF66E040EF7220A00F550FA6E08005A
:1004A000F550F96EFA03100426043C04236A226A0C
:1004B0001A6A04011351010A000109E0030A0DE060
:1004C000010A0FE0220A29E0030A4DE078D0256AEC
:1004D000120E246E030E1A6E74D0256A290E246E35
:1004E00070D0020E1A6E036A040112511B0FE96EDE
:1004F000000E0320EA6E236AEFCF22F023C003F040
:100500002250F2CFAAF0F29E00016FDEAABFF28E57
:10051000036A246E03C025F054D0D890040112352C
:10052000036AF2CFAAF0F29E000145DE0900F5CF82
:1005300003F0AABFF28E226E03C023F0223C02D049
:1005400023520FE023C003F02250F2CFAAF0F29E14
:100550000CDEAABFF28E036A246E03C025F031D0F0
:1005600002D03CDF3DD0D89004011435036AF2CFAD
:10057000AAF0F29E0001E7DD0900F5CF03F0AABF63
:10058000F28E226E03C023F0223C02D0235215E0EB
:10059000010E1A6ED89004011435036AF2CFAAF046
:1005A000F29E0001D9DD0900F5CF03F0AABFF28E5B
:1005B000246E03C025F005D002D010DF11D00EDF6D
:1005C0000FD00401175308E1255203E12450165DB2
:1005D00003E2256A16C424F0010E176E000100DF45
:1005E0001200A95304E1040E1F6EB9DEE9D0050E16
:1005F0001F6E040EAC6F900EAB6F010EAA6FAA5166
:100600000F08D8A0DDD0AAC0B2F079DEAD6B036AC6
:10061000AA51F2CFB1F0F29E4DDDB1BFF28EFF08CC
:1006200065E0040EAD6FD890AA35036AF2CFB1F041
:10063000F29E50DD0900F5CF03F0B1BFF28EAE6F30
:1006400003C0AFF0B46BAAC0B3F0B66B080EB56FC1
:1006500047DE01C0B1F0010E0124016E000E022040
:10066000036E01C0E9FF040E0324EA6EAEC0EFFF83
:10067000B46BAAC0B3F0B66B080EB56F31DE01C023
:10068000B1F0020E0124016E000E0220036E01C0C3
:10069000E9FF040E0324EA6EACC0ECFFED52ABC0E0
:1006A000EFFFD890AA35036AF2CFB1F0F29E12DDC7
:1006B0000900F5CF03F0B1BFF28EAB270350AC2396
:1006C000880EB06FAFA101D0B081AFA301D0B083CD
:1006D000B46BAAC0B3F0B66B080EB56F01DE01C0F3
:1006E000E9FF040E0224EA6EB0C0EFFF036AAA51CC
:1006F000F2CFB1F0F29EDEDCB1BFF28EFF0845E032
:10070000AD83B46BAAC0B3F0B66B080EB56FE8DD6D
:1007100002C0B2F001C0B1F0040EB127000EB22346
:10072000020EB125016E000EB221036E01C0E9FF79
:10073000040E0324EA6EACC0ECFFED52ABC0EFFF39
:10074000D890AA35036AF2CFB1F0F29EC3DC09005B
:10075000F5CF03F0B1BFF28EAB270350AC23B46BDF
:10076000AAC0B3F0B66B080EB56FBADD02C0B2F026
:1007700001C0B1F0040EB127000EB223B1C0E9FFF1
:10078000040EB225EA6E400EEF6EAD51060802E18E
:100790000E0EAD6F036AAA51F2CFB1F0F29E8ADC61
:1007A000B1BFF28E010801E0AD89036AAA51700F52
:1007B000E96E0F0E0320EA6EADC0EFFFAA2B1FD724
:1007C0002FEF04F004011151000A00010DE0010AAD
:1007D00014E0020A1FE0060A29E0030A2EE00E0ACE
:1007E0002EE0010A32E040D019C050F40401516BF0
:1007F000020E0001AC6FEFDD38D00401122D07D0DE
:10080000010E19160001AC6BE6DD03D004010001F6
:10081000E5DD2BD00401122D06D019820001AC6B4E
:10082000DADD03D004010001D9DD1FD0020E176EFE
:1008300012C421F0AC6BCFDD18D038DE16D018C052
:1008400050F4010EAC6FC7DD10D004011251010845
:1008500009E312C418F012C4A9F00001C2D6AC6BAF
:10086000BADD0401000101D0B9DD60EF05F018C068
:10087000A9F004011151000A000107E00A0A0DE085
:10088000010A2DE00D0A3DE03ED00401506B516B92
:10089000020E0001AC6F9FDD37D0A9531EE0010EA0
:1008A000A95D036AF2CFAAF0F29E7CDCAABFF28EA9
:1008B000016E0401145DD8A002D000010ED0036ABD
:1008C0001451260FE96E000E0320EA6EEFCF50F4AC
:1008D000010E0001AC6F7FDD01D080DD15D0A95382
:1008E0000EE0036A04011451260FE96E000E032086
:1008F000EA6E12C4EFFF0001AC6B6DDD01D06EDD5E
:1009000003D0D4DD01D06ADD60EF05F0AA91A9BF64
:10091000AA81A99FAAA117D0B46BA9C0B3F0B66BE6
:10092000080EB56FDDDC02C0ACF001C0ABF0040E08
:10093000AB27000EAC23ABC0E9FF040EAC25EA6E7A
:10094000880EEF6E0DD0B46BA9C0B3F0B66B080E75
:10095000B56FC6DC01C0E9FF040E0224EA6EEF6A3F
:1009600026EF05F0AA91A9BFAA81A99FAAA117D035
:10097000B46BA9C0B3F0B66B080EB56FB1DC02C0A2
:10098000ACF001C0ABF0040EAB27000EAC23ABC043
:10099000E9FF040EAC25EA6E840EEF6E0ED0B46B48
:1009A000A9C0B3F0B66B080EB56F9ADC01C0E9FFC1
:1009B000040E0224EA6E840EEF6E2CEF05F0AA916D
:1009C000A9BFAA81A99FAAA117D0B46BA9C0B3F0EF
:1009D000B66B080EB56F84DC02C0ADF001C0ACF0A0
:1009E000040EAC27000EAD23ACC0E9FF040EAD250C
:1009F000EA6EEFCFABF00ED0B46BA9C0B3F0B66B1C
:100A0000080EB56F6DDC01C0E9FF040E0224EA6E2A
:100A1000EFCFABF0ABAF02D0ABB502D0000E01D040
:100A2000010E016E36EF05F014C4B3F02EDC015256
:100A300028E004011151010A000105E0020A09E061
:100A4000030A0DE01DD014C4A9F060D7AC6BC3DC61
:100A500018D014C4A9F086D7AC6BBDDC12D0040149
:100A6000506B516B14C4A9F00001A9D7015204E0E6
:100A7000010E0401506F0001020EAC6FACDC01D01E
:100A8000ADDC60EF05F0040111510001A7DC60EF5F
:100A900005F0176A040110517F0B000A000107E0FE
:100AA000010A07E0030A07E0230A07E008D08AD614
:100AB00007D0DDD605D0B8D703D0E5D701D08EDC7E
:100AC000C3EF06F0B46BA9C0B3F0B66B080EB56FF8
:100AD00007DC01C0E9FF040E0224EA6EEFCFABF0A1
:100AE000AA51020806E1ABAD02D0AA6B02D0010EFA
:100AF000AA6FAA5103081AE1840EAB6FB46BA9C0A8
:100B0000B3F0B66B080EB56F70EC01F002C0AFF039
:100B100001C0AEF0040EAE27000EAF23AEC0E9FF59
:100B2000040EAF25EA6E840EEF6E07D0AA2D03D017
:100B3000C80EAB6F02D0880EAB6FD890A935036A90
:100B4000F2CFAEF0F29E6AEC00F00900F5CF03F0B0
:100B5000AEBFF28EAC6F03C0ADF0B46BA9C0B3F002
:100B6000B66B080EB56F70EC01F001C0AEF0010E6F
:100B70000124016E000E0220036E01C0E9FF040E85
:100B80000324EA6EACC0EFFFADA101D0AB81ADA3F1
:100B900001D0AB83B46BA9C0B3F0B66B080EB56FD0
:100BA00070EC01F001C0E9FF040E0224EA6EABC054
:100BB000EFFF1200036AAE51700FE96E0F0E0320B3
:100BC000EA6EEF5219E0B46BAEC0B3F0B66B080E2C
:100BD000B56F70EC01F002C0B0F001C0AFF0040ED0
:100BE000AF27000EB023AFC0E9FF040EB025EA6EB8
:100BF000EFCFB1F0B1AF02D0000E01D0010E016E07
:100C00001200A9C0AEF0D6DF0152D8B47DD0B46BCB
:100C1000A9C0B3F0B66B080EB56F70EC01F002C05E
:100C2000AFF001C0AEF0040EAE27000EAF23010EF0
:100C3000AE25016E000EAF21036E01C0E9FF040E68
:100C40000324EA6EAAC0EFFFAC5102081EE1B46BA8
:100C5000A9C0B3F0B66B080EB56F70EC01F002C01E
:100C6000AFF001C0AEF0040EAE27000EAF23AEC051
:100C7000E9FF040EAF25EA6EEFCFADF0ADAD02D0C7
:100C8000AC6B02D0010EAC6F18D0AC51040815E16A
:100C9000B46BA9C0B3F0B66B080EB56F70EC01F081
:100CA00001C0E9FF040E0224EA6EEFCFADF0ADAD56
:100CB00003D0010EAC6F01D0AC6BAC2D03D0C80ECD
:100CC000AD6F02D0880EAD6FABA101D0AD81ABA3EB
:100CD00001D0AD83B46BA9C0B3F0B66B080EB56F8D
:100CE00070EC01F002C0AFF001C0AEF0040EAE2710
:100CF000000EAF23AEC0E9FF040EAF25EA6EADC013
:100D0000EFFF010E016E02D0000E016E1200A9531A
:100D100000E11200AAC06EFFAA5303E0040E1F6E8A
:100D200002D0020E1F6E9AEF06F0186A176A21C0F1
:100D3000AAF0F0D7A7EF06F0A95309E1172C03D0CA
:100D4000F0EC01F004D017500208D8B4EED712002E
:100D50001E30A76FA733A7331F0EA7171E5241E1FE
:100D6000040100513C0B0001A86F430E0401001761
:100D70000001A85134081EE104010451800B01E078
:100D8000046B000186D66D98203C05D0A96B030E3C
:100D9000AA6F98DE0ED0A96B020EAA6F93DE2050C8
:100DA000FE0807E0A96BAB6B20C0AAF0040EAC6F85
:100DB00028DF16D0A851040813E1A96BA8DFA96B9E
:100DC000020EAA6F7FDE2050FE080AE0203C01D010
:100DD00007D0A96BAB6B20C0AAF0010EAC6F11DF7E
:100DE0001AD01E5004080EE12068A96BA5DF203C34
:100DF00001D007D0A96BAB6B20C0AAF0020EAC6F7C
:100E000000DF09D01EB404D0A7C0A9F080DF03D052
:100E1000A7C0A9F091DF3EEF07F0A19A1F52D8B406
:100E200033D06852D8B430D068A403D069B422EF6C
:100E300001F06DB229D068AA03D069BA3AEF01F087
:100E400068A203D069B241EF01F068A003D069B095
:100E5000CEEF01F068A803D069B8E3EF01F068AC09
:100E600003D069BCE8EF01F0A66B68A608D069A6BC
:100E700006D06CCF1EF002EC00F06AD701D004D08F
:100E8000A651A62B0308F1E22AEF00F055534220A9
:100E90004241474C414E5449534900004B5552552D
:100EA0004C55594F522E2E2E00000C5553422042C5
:100EB00041474C414E54495349004B5552554C44BF
:100EC000552021000C50524F4752414D204241477E
:100ED0004C414E44492021000C50524F4752414D45
:100EE00020415952494C4449202100000C47656C6F
:100EF0003A20256C6400476F6E3A20256C64000030
:100F00000C47656C3A20256C6400476F6E3A2025CB
:100F10006C6400000C47656C3A20256C6400476FD8
:100F20006E3A20256C6400000C47656C3A20256CF5
:100F30006400476F6E3A20256C6400000C47656CB6
:100F40003A20256C6400476F6E3A20256C640000DF
:100F50000C4C4544205041534956202100000C427E
:100F600041474C414E5449204B4553494C4449203C
:100F70002100EA6A9C0EE96EEF500EE00F0E016E42
:100F8000006A002EFED7012EFBD78F0E006E002EBA
:100F9000FED70000EF2EF2D71200A3B102D0899045
:100FA00001D089809290A3B302D0899201D0898226
:100FB0009292A3B502D0899401D089849294A3B768
:100FC00002D0899601D0898692960000929A898AE9
:100FD000070E006E002EFED700D0929A899A12005A
:100FE00092988998EF0E006E002EFED700D0A05385
:100FF00003E09298898802D0929889980000929A8A
:10100000899AA139A26F0F0EA217A2C0A3F0C5DF63
:10101000A1510F0BA26FA36FC0DF120092988998A5
:10102000929A899A0F0E9C6FA4DF926B92510208DC
:1010300008E3030EA36FB1DF050E9C6F9ADF922BBE
:10104000F5D7020EA36FA9DF926B9251030812E34A
:10105000036A9251F2CF93F0F29E4BEC00F093BFF3
:10106000F28E936FA06BA16FBBDF050E9C6F81DFCB
:10107000922BEBD79AEF0AF06D6A696A080E6F6ED1
:1010800094503009946E1F6A166AF2BE168EF29E54
:10109000BAEC01F016BEF28E4FEF08F0EDD774EF08
:1010A00008F0166AF2BE168EF29EBAEC01F016BE79
:1010B000F28E6D6A140E6F6E696A6D86010E1F6E78
:1010C00065EF08F06DB601D0ECD71F2C0BD06DBAD0
:1010D00009D0686A696AA08AC00EF212110E696EA0
:1010E000020E1F6E1200DAD7EDDF1F500208FCE17E
:1010F0009BEF0AF09D2D01D003D0400E9E6F01D0D2
:101100009E6B010E9C5D9E279E5180099F6FA06B78
:10111000A16F66DF12009B510C0A05E0060A0BE086
:10112000020A0FE013D0A06B010EA16F59DF020E6F
:101130009C6F1FDF10D0010E9C6F020E9D6FDADFD7
:101140000AD0A06B100EA16F4BDF05D0010EA06F6F
:101150009BC0A1F045DF12000900F5520CE0F6CF6C
:1011600092F0F7CF93F0F5CF9BF0D5DF92C0F6FF6A
:1011700093C0F7FFF1D71200185202E10400FCD728
:10118000ACEF0AF01850016E1200036A9251700F12
:10119000E96E0F0E0320EA6EEF521BE0166AF2BEF4
:1011A000168EF29EB46B92C0B3F0B66B080EB56F9C
:1011B00070EC01F016BEF28E02C094F001C093F004
:1011C00001C0E9FF040E0224EA6EEFCF95F095AF5F
:1011D00002D0000E01D0010E016ECAEF0AF0166AAD
:1011E000F2BE168EF29EB46B97C0B3F0B66B080ECB
:1011F000B56F70EC01F016BEF28E01C0A1F0020EC8
:101200000124016E000E0220036E01C0E9FF040EEE
:101210000324EA6EECCF9DF0ED52EFCF9CF0166AFE
:10122000F2BE168EF29EB46B97C0B3F0B66B080E8A
:10123000B56F70EC01F016BEF28E01C0A1F0010E88
:101240000124016E000E0220036E01C0E9FF040EAE
:101250000324EA6EA06BEFCF9FF0166AF2BE168EE3
:10126000F29EB46B97C0B3F0B66B080EB56F70EC1E
:1012700001F016BEF28E01C0E9FF040E0224EA6EF0
:10128000EFCF9EF09EA101D0A0819EA301D0A083AC
:10129000A0519B5D08E303E19A519F5D04E2A0C069
:1012A0009BF09FC09AF099C0EAFF98C0E9FF9DC0EB
:1012B000E2FF9CC0E1FF9BC002F09AC001F0015226
:1012C00002E0022A02D0025206E0E6CFEEFF012E33
:1012D000FCD7022EFAD79AC001F09BC002F07CEF37
:1012E00009F092C097F094C099F093C098F096C01E
:1012F0009BF095C09AF073D702C096F001C095F0AC
:10130000166AF2BE168EF29E92C0A9F0020EAA6F65
:1013100062EC05F016BEF28E95C001F096C002F0A8
:10132000D6EF0AF00900F6CF93F0F7CF94F0F5CF9F
:101330009BF0F1DE93C0F6FF94C0F7FF922FF2D737
:101340001200EACF9AF0E9CF99F093AF08D0998FC5
:1013500099A9992B921F931F922BD8B4932B933951
:10136000F009956F9527E20F966F320F986F9351A2
:101370000F0B962796279827E90F976F97279727A0
:1013800092390F0B9727982797379837981F9837D8
:1013900092510F0B98279537070E946F0A0E9707F7
:1013A0009827FDE396079727FDE395079627FDE32A
:1013B00094079527FDE3EA6A940EE96E070E9915E6
:1013C000999DE906991507E199B9E92A99B903D0D8
:1013D000200E006E1CD0E926980EE95CD8B4998DD9
:1013E000EF50006E08E199BD06D099B91BD099B7AE
:1013F00002D0200E0BD099AF06D02D0E006EED500E
:10140000999D999F04D099879999300E0026EACF2B
:1014100093F0E9CF92F000C09BF07DDE93C0EAFF2D
:1014200092C0E9FFEE5099ADD7D71200010E955F3B
:101430000CE3EA6A950EE96EEF5007E0020E006ECB
:10144000002EFED700D0EF2EF9D71200166AF2BE9A
:10145000168EF29E92C0AEF0DAEC05F016BEF28E59
:10146000015250E0166AF2BE168EF29EB46B92C024
:10147000B3F0B66B080EB56F70EC01F016BEF28ECD
:1014800002C09BF001C09AF0040E9A27000E9B2325
:10149000020E9A25016E000E9B21036E01C0E9FF2A
:1014A000040E0324EA6EECCF99F0ED52EFCF98F0E2
:1014B00099C0EAFF98C0E9FF94C0E2FF93C0E1FF42
:1014C00096C002F095C001F0015202E0022A02D05B
:1014D000025206E0E6CFEEFF012EFCD7022EFAD72D
:1014E000166AF2BE168EF29E92C0A9F096C0ABF0BC
:1014F00095C0AAF097C0ACF001EC06F016BEF28ED3
:10150000015002D0000E016E44EF0DF0F86AD09E3B
:10151000078EC150C00B0F09C16E070EB46E1B6A57
:10152000040E1C6E0C0E1D6E000E936E8A6A956E74
:101530008C6A74D5D8D5C6DD8C0EF66E0E0EF76E9D
:101540000BDE010E9C6F020E9D6FD4DD9C0EF66EBD
:101550000E0EF76E01DE10D615DE015201E08C8012
:10156000010E9C6F9D6FC6DDAA0EF66E0E0EF76E15
:10157000F3DD010E9C6F020E9D6FBCDDBA0EF66EA0
:101580000E0EF76EE9DDFEDD0152D8B4BED2010EBB
:10159000926FFBD50152D8B4B7D2010E926F946B03
:1015A000270E936F966B400E956F9BD62D5061085A
:1015B00001E18C822D50730801E18C84440E2D5C76
:1015C000C90F30E2370F87EF0DF08C822BD08C845F
:1015D00029D08C8627D08C8825D08C8A23D08C8CDF
:1015E00021D08C8E1FD08C921DD08C941BD08C96C9
:1015F00019D08C9817D08C9A15D08C9C13D08C9EB7
:1016000011D08A8A8A9C050E9C6FB3DC0BD08A9A13
:101610008A8C050E9C6FADDC05D08A9A8A9C050EDB
:101620009C6FA7DC28505108D8A42ED2610E295CEB
:10163000E80FD8B029D2180FD0EF0DF0C40EF66E17
:101640000E0EF76E89DD20D2D80EF66E0E0EF76EF6
:1016500083DD1AD2D8902C34886F896BD8B0892B4F
:10166000EC0EF66E0E0EF76E060E926F5BDE100E2F
:10167000E96E89C093F088C092F063DE166AF2BE0C
:10168000168EF29E89C0B4F088C0B3F0B66B0A0E15
:10169000B56F70EC01F016BEF28E02C089F001C089
:1016A00088F0580E8827020E8923010E9C6F020EC7
:1016B0009D6F20DDF60EF66E0E0EF76E050E926F24
:1016C00031DE100EE96E89C093F088C092F039DEE9
:1016D000876B8751180823E38A8089C092F0922B88
:1016E0009207D8B403D09569A1DEFAD788C095F0E7
:1016F0009DDE8A90200ED8808855926F4E0E8955B7
:10170000936F93C094F0942B9407D8B403D0956949
:101710008DDEFAD792C095F089DE872BDAD7B4D167
:10172000D8902C348A6F8B6BD8B08B2B000EF66E52
:101730000F0EF76E060E926FF5DD100EE96E8BC080
:1017400093F08AC092F0FDDD166AF2BE168EF29E0C
:101750008BC0B4F08AC0B3F0B66B0A0EB56F70ECF4
:1017600001F016BEF28E02C08BF001C08AF0580E56
:101770008A27020E8B23010E9C6F020E9D6FBADC2E
:101780000A0EF66E0F0EF76E050E926FCBDD100E81
:10179000E96E8BC093F08AC092F0D3DD876B8751DE
:1017A000180823E38A828BC092F0922B9207D8B458
:1017B00003D095693BDEFAD78AC095F037DE8A926E
:1017C000200ED8808A55926F4E0E8B55936F93C022
:1017D00094F0942B9407D8B403D0956927DEFAD7F8
:1017E00092C095F023DE872BDAD74ED1D8902C34D7
:1017F0008C6F8D6BD8B08D2B140EF66E0F0EF76EAE
:10180000060E926F8FDD100EE96E8DC093F08CC0C6
:1018100092F097DD166AF2BE168EF29E8DC0B4F07D
:101820008CC0B3F0B66B0A0EB56F70EC01F016BE4B
:10183000F28E02C08DF001C08CF0580E8C27020E83
:101840008D23010E9C6F020E9D6F54DC1E0EF66EF2
:101850000F0EF76E050E926F65DD100EE96E8DC0EE
:1018600093F08CC092F06DDD876B8751180823E3ED
:101870008A848DC092F0922B9207D8B403D09569D8
:10188000D5DDFAD78CC095F0D1DD8A94200ED880B2
:101890008C55926F4E0E8D55936F93C094F0942B90
:1018A0009407D8B403D09569C1DDFAD792C095F0FA
:1018B000BDDD872BDAD7E8D0D8902C348E6F8F6BB4
:1018C000D8B08F2B280EF66E0F0EF76E060E926FA5
:1018D00029DD100EE96E8FC093F08EC092F031DDDD
:1018E000166AF2BE168EF29E8FC0B4F08EC0B3F0B0
:1018F000B66B0A0EB56F70EC01F016BEF28E02C028
:101900008FF001C08EF0580E8E27020E8F23010E2D
:101910009C6F020E9D6F7AEC08F0320EF66E0F0E81
:10192000F76E050E926FFEDC100EE96E8FC093F01D
:101930008EC092F006DD876B8751180823E38A86F4
:101940008FC092F0922B9207D8B403D095696EDDC8
:10195000FAD78EC095F06ADD8A96200ED8808E5513
:10196000926F4E0E8F55936F93C094F0942B940703
:10197000D8B403D095695ADDFAD792C095F056DDF8
:10198000872BDAD781D0D8902C34906F916BD8B058
:10199000912B3C0EF66E0F0EF76E060E926FC2DCA8
:1019A000100EE96E91C093F090C092F0CADC166AF6
:1019B000F2BE168EF29E91C0B4F090C0B3F0B66B3A
:1019C0000A0EB56F70EC01F016BEF28E02C091F0F7
:1019D00001C090F0580E9027020E9123010E9C6FCB
:1019E000020E9D6F7AEC08F0460EF66E0F0EF76E43
:1019F000050E926F97DC100EE96E91C093F090C0C7
:101A000092F09FDC876B8751180823E38A8891C086
:101A100092F0922B9207D8B403D0956907DDFAD7DC
:101A200090C095F003DD8A98200ED8809055926F73
:101A30004E0E9155936F93C094F0942B9407D8B4A5
:101A400003D09569F3DCFAD792C095F0EFDC872BD1
:101A5000DAD71AD08C90500EF66E0F0EF76EACECF3
:101A600008F06A6B010E926F946B670E936F966B22
:101A7000400E956F020E976FE9D406D05E0EF66E9B
:101A80000F0EF76EACEC08F02850570819E1010E64
:101A90009C6F9D6F7AEC08F0020E876F8751275C70
:101AA0000FE3036A8751270FE96E000E0320EA6EE9
:101AB000EFCF92F092C09BF08BEC08F0872BEED723
:101AC000285059081AE1010E9C6F020E9D6F7AECA6
:101AD00008F0020E876F8751275C0FE3036A875176
:101AE000270FE96E000E0320EA6EEFCF92F092C04E
:101AF0009BF08BEC08F0872BEED728505A0804E1B6
:101B00000C0E9B6F8BEC08F03ED53DD50300F2CF59
:101B10000DF0F29EE824F76AF736330FF66E1B0ECF
:101B2000F7220A00F550FA6E0800F5500DBEF28E4D
:101B3000F96E1A16241624160E16241602162416EA
:101B400024162416241624162416241624162416C5
:101B500024162416241624162416241624162416B5
:101B6000241624162416241624162416CA15F6152F
:101B7000EE15D2152416D615DA15DE152416E21543
:101B800024162416FE15FA152416241624162416D7
:101B9000CE1524162416F2152416EA152416E61579
:101BA000F2CF0DF0F29EE824F76AF736C50FF66E15
:101BB0001B0EF7220A00F550FA6E0800F5500DBE14
:101BC000F28EF96E3C16881A881A881A881A881AB2
:101BD000881A881A54162017EC17B8188619881A0C
:101BE000881A881A881A881A4816881A541A881A5D
:041BF000881A7C1AB9
:020000040030CA
:0E00000020C23E1E0085A1000FC00FE00F4081
:00000001FF
;PIC18F4550
;CRC=9F1A  CREATED="21-Oca-17 19:41"
